{
  "contractName": "TaxCalculator",
  "abi": [
    {
      "constant": true,
      "inputs": [],
      "name": "taxAmount",
      "outputs": [
        {
          "internalType": "uint256",
          "name": "",
          "type": "uint256"
        }
      ],
      "payable": false,
      "stateMutability": "view",
      "type": "function"
    },
    {
      "constant": false,
      "inputs": [
        {
          "internalType": "uint256",
          "name": "amount",
          "type": "uint256"
        },
        {
          "internalType": "uint256",
          "name": "taxRate",
          "type": "uint256"
        }
      ],
      "name": "calculateTax",
      "outputs": [],
      "payable": false,
      "stateMutability": "nonpayable",
      "type": "function"
    },
    {
      "constant": true,
      "inputs": [],
      "name": "getTaxAmount",
      "outputs": [
        {
          "internalType": "uint256",
          "name": "",
          "type": "uint256"
        }
      ],
      "payable": false,
      "stateMutability": "view",
      "type": "function"
    }
  ],
  "bytecode": "0x608060405234801561001057600080fd5b50610108806100206000396000f3fe6080604052348015600f57600080fd5b5060043610603c5760003560e01c8063ad5ea36f146041578063d9c2901d14605d578063f26ec19d146092575b600080fd5b604760ae565b6040518082815260200191505060405180910390f35b609060048036036040811015607157600080fd5b81019080803590602001909291908035906020019092919050505060b4565b005b609860ca565b6040518082815260200191505060405180910390f35b60005481565b60648183028160bf57fe5b046000819055505050565b6000805490509056fea265627a7a72315820dbf64caa19ba02a2f63172251ec29d477904791ffaf37140194df3268529db0964736f6c63430005100032",
  "source": "// SPDX-License-Identifier: MIT\npragma solidity ^0.5.16;\n\ncontract TaxCalculator {\n    uint256 public taxAmount;\n\n    function calculateTax(uint256 amount, uint256 taxRate) public {\n        taxAmount = (amount * taxRate) / 100;\n    }\n\n    function getTaxAmount() public view returns (uint256) {\n        return taxAmount;\n    }\n}\n",
  "sourcePath": "C:\\Users\\sharm\\Downloads\\final2\\Pramod DApp\\contracts\\MyContract.sol",
  "compiler": {
    "name": "solc",
    "version": "0.5.16+commit.9c3226ce.Emscripten.clang"
  },
  "schemaVersion": "3.4.16",
  "updatedAt": "2024-06-24T09:44:48.781Z",
  "networkType": "ethereum",
  "devdoc": {
    "methods": {}
  },
  "userdoc": {
    "methods": {}
  }
}